:400000000080002011000000950500009505000008B5044B1A6803F53F5302331A6000F0C1FA00BFFA46004010B5054C237833B9044B13B10448AFF300800123237010BD88
:400040004081FF1F00000000300C0000084B10B51BB108490848AFF300800848036803B910BD074B002BFBD0BDE81040184700BF000000004481FF1F300C0000C880FF1F9A
:400080000000000070B500F06BFD00F0FDFB00F067FB00F04BFB00F0E1FA00F00BFB00F015FB00F025FB0A2000F074FB62B600F053FC4021102000F06DF84021112000F03A
:4000C00069F8642000F066FB4F213C2000F08EF88C2260213C2000F014F9022261213C2000F00FF9274D102262213C2000F009F9042268213C2000F0D3F82E4600F03EFD2A
:40010000214C28801E2000F05DF8C3072070F9D5282000F057F8292000F054F82A2000F051F82B2000F04EF82C2000F04BF82D2000F048F8222000F045F8232000F042F817
:40014000242000F03FF8252000F03CF8262000F039F8272000F036F81E2000F01BFB00F00DFD0A4B0A4C18803388181A80B2208000F0070000F0FEFB2088000A00F0FAFB28
:40018000BCE700BF8481FF1F6881FF1F8281FF1F6A81FF1F38B505460C4600F08BFA00F095FA00F0A5FA284600F072FA00F0E6FA8207FBD5204600F06BFA00F0DFFA83077B
:4001C000FBD538BD08B540F0800000F061FA00F0D5FA8207FBD5002000F05AFA00F0CEFAC307FBD5BDE8084000F05EBA38B505460C4601204021FFF7CDFF012000F0CAFA1C
:4002000045F001011520FFF7C5FF012000F0C2FA21461620FFF7BEFF012000F0BBFA01211720FFF7B7FF012000F0B4FA4C211420FFF7B0FF012000F0ADFA01200021FFF7BB
:40024000A9FF2920FFF7BEFF1E20FFF7BBFFC207FAD53920FFF7B6FFC307FAD540210120FFF798FF012000F095FA08211420FFF791FF012000F08EFA4FF4967000F0A0FAB9
:400280000F20FFF79FFF0220FFF79CFF044600210120FFF77FFF204600F06CFB204638BD70B506460D46144640210120FFF772FF012000F06FFA46F001011520FFF76AFF63
:4002C000012000F067FA29461620FFF763FF012000F060FA21461720FFF75CFF012000F059FA4C211420FFF755FF012000F052FA01200021FFF74EFFBDE87040012000F09E
:4003000049BA70B506460D46144640210120FFF741FF012000F03EFA31461520FFF73AFF012000F037FA29461620FFF733FF012000F030FA00211720FFF72CFF012000F0EC
:4003400029FA21462120FFF725FF012000F022FA14204C21FFF71EFF012000F01BFA2220FFF730FF0306FAD508211420FFF712FF4FF4967000F024FABDE870400021012000
:40038000FFF708BFF8B572B6674A684D1378002443F004031370062606FB045300219A881868013400F03BFC092CF5D1604B614A614D92E803008022186099805F48604937
:4003C00000F022FC5F48002450F8041F04F1105303F13C0221F0FF063D33C9B20B4452005B0002329A4206D012F8027C12F801EC07F806E0F5E7A8420C44E5D1524A534CE1
:400400001378534D43F002031370137C514F43F0020313742378A2F5863243F040032370413A1378192643F0100313704A4B03CBC2F8400DC2F8441D93E8070003C52A806E
:40044000464A0C3303CB1060516003CB1061516103CBA2F55F62C2F8141EC2F8100E1378332143F0080313703D4B61221A700B22A3F5F0631A803B4A182313705180137164
:40048000394B02221A70032108224FF040231A7083F80012354B36491B780025DBB20B70344B1A8041F2512223F8022C3B784FF4F07003F0010343EA450500F069FB013EE5
:4004C00005F003052FD0032DF0D12B4B4FF480721A802A4907221A70482000220A7088701A70022203F8032C254A264D137843F0030313701A4B81221A7003F5F7230122E0
:4005000004331A70204B214A1B78DBB203F007011B09117053701E4B44221A7094E80F0007C52B80F8BDFEE7E8460040340C00006052004058050048740000480006014064
:4005400060050048FCFFFF4703500140A0430040C051004025420040E00500481251004000480040824000400043004008010049A1460040224200400440004006400040DA
:40058000A2430040B0430040CF0100496E5800407658004008B500F00BFB03680C2B00D1FEE7FEE780B51148114B0025C0B1A3F1100192C922460439161BB74204D051F85A
:4005C000046F42F8046BF7E7114653F8046C8C1AA64202D041F8045BF9E701381033E5E700F0ECFAFFF74EFDFEE700BF01000000A00C0000104A114B10B41A60104A114CBC
:400600001368114843F4007313600023032B98BF54F823204FEA830188BF0C4A0133302B4250F3D10A4B1A780A4B1A700A4B064A10BC1A60FFF7A6BE0004FA050CED00E06C
:4006400014ED00E0000000000080FF1F95050000BC760040C080FF1F08ED00E008B500F09FFA0A4A1378013A43F02003537092F8013143F0100382F80131137843F01003C4
:400680001370BDE8084000F08FBA00BF96640040034A13785B07FCD5024B1870704700BF6665004046640040014B1878704700BF56640040034A044913789B0601D50B78E2
:4006C000FAE77047656400405664004008B500F067FA064B1A7842F001021A701A7802F0FE021A70BDE8084000F05EBA9664004008B50B4A0B4913789B0601D50B78FAE7A6
:4007000000F04EFA084B1A7842F001021A701A7802F0FE021A70BDE8084000F045BA00BF65640040566400409664004008B5084B0F221A70FFF7DCFF064B074A1B78074BD4
:400740006FF480711B78002313700A44137008BD8664004066650040866500406564004010B5054C23781BB9FFF7E0FF01232370BDE81040FFF772BF5C81FF1F044B1878E6
:4007800003F201131B78184300F0EF00704700BF6564004038B50446084DB4F5004F05D9286800F0F5F9A4F50044F6E7034B58686043BDE8384000F0EBB900BFCC80FF1FCF
:4007C000024B1B7A584300F0E3B900BFCC80FF1F054A00F01F00126800F1100352F8230042F82310704700BF08ED00E000F01F0000F16040490100F56440C9B201707047A0
:40080000144A137803F001031370937803F0FC039370114B1A7802F0CF021A701A7842F030021A701A7802F0F0021A701A7842F00F021A70094A137843F00103137042F66B
:40084000DF63A2F80330A2F80530054B00221A70704700BF0C4F0040174F00400D4F00400F4F0040074A137843F002031370137C43F00203137492F8693B43F0010382F8E9
:40088000693B7047A343004008B505490B781BB9FFF7B6FF01230B70BDE80840FFF7E2BF5D81FF1F08B511490020FFF791FF07210020FFF79BFF0E4B00221A700D4B722205
:4008C0001A702022A3F580731A700B490120FFF77FFF07210120FFF789FF084B06221A7047221A74022283F8602108BDD90900005E81FF1F84650040710A0000256400403A
:4009000010B500F04DF904460F4A10491378A2F5807243F0200382F80031137843F0100313700B4A012313600B7843F010030B70084902230B60136000F0C2F82046BDE81E
:40094000104000F031B900BF946500409565004000E100E080E200E010B5054C63781BB9FFF7A0FF01236370BDE81040FFF7C8BF5E81FF1F10B5134CE379A279D2B2934264
:4009800002D2511E994201E0991A072914BF002101210029F1D193420B4A05D11178490702D40A4B187010BD082B094928BF0023C8540133E37113789B0742BF054B022226
:4009C0001A6010BD5E81FF1F6565004046650040B681FF1F00E200E02DE9F0431C491D4C0A4625461C4E1D481D4FDFF87CE0DFF87CC03378DBB213F01E091EBF90F800800D
:400A000049EA080880F800809B061ED597F800800B785FFA88F8DBB20EF80380237813B101238CF8003013780133DBB213701378072B84BF00230B700A4B92F800801B78D0
:400A40009845D6D101232B70D3E7BDE8F08300BF6181FF1F6281FF1F646400405E81FF1F476500406081FF1FAE81FF1F6381FF1F0E4AF0B511460E4C0E480F4D0F4E13781A
:400A800027789F4211D0037813F004030DD11778072F88BF13700B78DBB2EB5CDBB233700B780133DBB20B70E9E7F0BD6481FF1F6581FF1F65650040B681FF1F46650040CF
:400AC000044A137843F002031370137C43F0020313747047A2430040144A137803F001031370937803F0FC039370114B1A7802F0CF021A701A7842F030021A701A7802F096
:400B0000F0021A701A7842F00F021A70094A137843F0010313704FF6FF73A2F80330A2F80530054B00221A70704700BF004F00400B4F0040014F0040034F0040074A137856
:400B400043F001031370137C43F00103137492F85D3B43F0010382F85D3B7047A343004008B505490B781BB9FFF7B6FF01230B70BDE80840FFF7E2BF6781FF1F024B1B8800
:400B8000024B188880B27047064F0040084F00400230800803D000BF01380046FCD17047EFF3108072B6704780F31088704700BF014B1868704700BF3C81FF1F0E4B70B577
:400BC0001E460E4C0025E41AA410A54204D056F8253098470135F8E700F048F8084B094C1E46E41AA4100025A54204D056F8253098470135F8E770BD780C0000780C000074
:400C0000780C0000800C000010B5431E0A44914204D011F8014B03F8014FF8E710BD03460244934202D003F8011BFAE77047000000000000004F00401800405100403000B0
:400C4000F0510040100000000140000680060140800900140140000800400140000A004C014000020050014020004300F8B500BFF8BC08BC9E4670474D000000F50500001B
:400C8000F8B500BFF8BC08BC9E46704729000000A00C0000C880FF1F7800000080000000000000000000E02EC05D00001800000000366E010000000000000000000000009A
:400CC00000000000000000000000000000000000000000006A0C0000000000000000000000000000000000000000000000000000000000000000000000000000000000007E
:400D00000000000000000000000000000000000000000000DC80FF1F0000000000000000000000000000000000000000000000000000000000000000000000000000000039
:400D40000000000000000000000000000000000000000000000000000000000000000000000000000000000000000000000000000000000000000000000000000000000073
:400D80000000000000000000000000000000000000000000000000000000000000000000000000000000000000000000000000000000000000000000000000000000000033
:400DC00000000000000000000000000000000000000000000000000000000000000000000000000000000000000000000000000000000000000000000000000000000000F3
:400E000000000000000000000000000000000000000000000000000000000000000000000000000000000000000000000000000000000000000000000000000000000000B2
:020000040003F7
:0200000480007A
:40000000044F00400352004002640040026500405104014032050140150601404D07014001090140020B0140451401403E150140631601404F17014004180140021901406B
:40004000011B0140034001400441014009420140034301400345014005460140024701400C48014006490140014C0140074D0140085001400151014001800A360D80163659
:400080000080101811088438860F8472850F030104010A020D03100116041A01220126022A042F02310332013402360438083E5054185604580459045B045C915D105F0152
:4000C0008023820C8402856B861D871488D089558B229021921A94039506963498D09B189CD09D709F09A2D0A720AA80ACD0B020B240B307B480B538B61FB740B802B908E0
:40010000BA80BE14BF40C003C640C9FFCA07CBFFCC40CD20CEF0CF05D008D440D804D904DA04DB04DD01DF01E040E1A8E240E320001806A0070408020A280EA910681606BF
:400140001701181019501D0A1F502101262827022A402F2034013668370239423C203E0445044F0256105A02604061506520672169406F028040830286088A208B408D021E
:40018000C076C2FEC4DECA48CC70CE69D040D601D87DE008850C87118910930398019D099F10A510A70CA91CAB02AD14B001B11FB51FBE01D804D904DB04DC10DF01002085
:4001C00002080680070109200A010B020EA115401601171619011C201E641F042122266029242B022F05310232803580366437013A183D403E164404450846A04D884E48F7
:4002000056055720588067806E196F1576027702780279028020814086848D01938096AF98819A109C429EC69F05A108A301A43CA504A654A720A920AA44AB01AC80AD016E
:40024000B620C090C2B2C4F0CA3ECCF9CEF6D0E0D230D608D880EA10E440E008E41000010141024004330518060C083F09080C020D80100313E6141C1539162317C419E741
:400280001B181C1F1D101E202008211923E224042701280C29FF2DC02E23301031C03240331F340F3538362C3AA03B083E0156025713580459045B045C115D105F01831505
:4002C0009513970C99039B149F08A513A704A90AAB14B50FB710BB20BF40D401D604D904DB04DC10DD10DF0100450308084209080B02108113541804199521082215264023
:400300002704284229042B082D802F1530813118342036A0370438693F0259015C205E815F086601680269106B10709473148201841086018C019040936894019510962A3A
:4003400098029B089C409D109F14A010A2A0A309A402AE21C00FC20DC40FCA6FCC7FCE8FD6F1D880011003020602080809010A130E161416150E16091E092408250E2615DA
:4003800029042B08321B330634073501371839883A283F1440344102450C46E047B0482949FF4AFF4BFF4EF04F44500C5409580459045A045B045C115D015F0166C06A40B5
:4003C0006B02800481018209830289078C108D028E098F019008910492169907A41CA81CB01CB103B403B704BA08BE10C065C104C203C402C50EC70CC811C9FFCAFFCBFFCE
:40040000CC62CDA0CEF0CF41D00CD608D804D904DA04DB04DC11DD91DF01E640E702E910EA30EB10ED10EE10EF12004106180701080209080AA00E200F0210101110170408
:4004400018041A801B081E201F1420422504268027092D202E082F143012331035043704384139103C203D023F0240044109450146084704482549104B404E20500854108C
:4004800057025B405C205D085E416240640191029240962A982199089A309B409C409D249E48A301A42CA504A680A70AAB40AC06AF08C0E9C2A8C426CA60CC45CEADD0E768
:4004C000D20CD6F8D818E20838803E4058045F011F408740E61033803710CC305F029F10A780D68014805B0883889F12A780C420D640E220E62098809F10B70257025F01D0
:40050000D60587028F019701A702E4088F10E40267806B08874896019F10A880AE01D880DA40E210E810EC800E01831096019F10C280E2209B10102077108C209B10C40856
:40054000DE04E608000301010A030B01100311011A031B01000F0000808000004000000063D98C000011002200D100082208500423D8D80181D97400002000D0722E0081DB
:4005800072000000500022007224004922D9000080001F0060F0000F080000E0000001006504300002FEB0CD3BFFFFFF2200F00C040000000000022C0404040400000001E7
:4005C0000000C00040011011C001001140014001000000000000000000000000000000000080800080000000800040808000800000000000000B0B0000000000001818007F
:400600001800000080000000000000000000000000000000000000000000000000000000000000000000000000000000000000000000000000000000000000000000000022
:40064000000000000000000000000000000000000000000000000000000000000000000000000000000000000000000000000000000000000000000000000000000000007A
:40068000000000000000000000000000000000000000000000000000000000000000000000000000000000000000000000000000000000000000000000000000000000003A
:4006C00000000000000000000000000000000000000000000000000000000000000000000000000000000000000000000000000000000000000000000000000000000000FA
:4007000000000000000000000000000000000000000000000000000000000000000000000000000000000000000000000000000000000000000000000000000000000000B9
:0200000490006A
:0400000000004005B7
:0200000490105A
:04000000BC90ACAF55
:0200000490303A
:0200000077A2E5
:0200000490402A
:4000000000000000000000000000000000000000000000000000000000000000000000000000000000000000000000000000000000000000000000000000000000000000C0
:400040000000000000000000000000000000000000000000000000000000000000000000000000000000000000000000000000000000000000000000000000000000000080
:400080000000000000000000000000000000000000000000000000000000000000000000000000000000000000000000000000000000000000000000000000000000000040
:4000C0000000000000000000000000000000000000000000000000000000000000000000000000000000000000000000000000000000000000000000000000000000000000
:0200000490501A
:0C00000000012E16106900012E1C880B58
:00000001FF