:400000000080002011000000850300008503000008B5044B1A6803F53F5302331A6000F0B9F900BFFA46004010B5054C237833B9044B13B10448AFF300800123237010BDB5
:400040004081FF1F00000000E0070000084B10B51BB108490848AFF300800848036803B910BD074B002BFBD0BDE81040184700BF000000004481FF1FE0070000C880FF1F44
:400080000000000008B5012000F04EFB322000F077FA292000F058F8044B18700A2000F06FFABDE8084000F037BB00BF3982FF1F08B500F011FB00F0BDFA00F047FA00F0AB
:4000C0002DFA00F0C3F900F0EDF900F0F7F900F007FA0A2000F054FA62B60D4800F00AFB01210D2000F018F802210E2000F014F82021102000F010F80021112000F00CF871
:40010000044B00221A60002000F00EFBFBE700BF850000002C82FF1F38B505460C4600F0C1F900F0CBF900F0DBF9284600F0A8F900F01AFA8207FBD5204600F0A1F900F0E1
:4001400013FA8307FBD538BD08B540F0800000F097F900F009FA8207FBD5002000F090F900F002FAC307FBD5BDE8084000F094B9F8B572B6684A694D1378002443F004037B
:400180001370062606FB045300219A881868013400F01DFB092CF5D180226149614800F00BFB80226049614800F006FB604D6148002450F8041F04F1105303F13A0221F0EF
:4001C000FF063B33C9B20B4452005B0002329A4206D012F8027C12F801EC07F806E0F5E7A8420C44E5D1544A544C1378544D43F002031370137C534F43F00203137423784F
:40020000A2F5863243F040032370413A1378192643F0100313704C4B03CBC2F8400DC2F8441D93E8070003C52A80484A0C3303CB1060516003CB1061516103CBA2F55F6206
:40024000C2F8141EC2F8100E1378172143F0080313703F4B61221A700B22A3F5F0631A803C4A18231370518033211371D1801372394B02221A70032108224FF040231A707E
:4002800083F80012354B36491B780025DBB20B70344B1A8041F2512223F8022C3B784FF4F07003F0010343EA450500F049FA013E05F003052FD0032DF0D12B4B4FF480721C
:4002C0001A802A4907221A70482000220A7088701A70022203F8032C254A264D137843F0070313701A4B81221A7003F5F723012204331A70204B214A1B78DBB203F00701C4
:400300001B09117053701E4B44221A7094E80F0007C52B80F8BDFEE7E8460040E4070000C804004800060140480500480014014070000048FCFFFF4703500140A043004012
:40034000C051004025420040C80500481251004000480040824000400043004008010049A1460040224200400440004006400040A2430040B0430040CF0100496E58004022
:400380007658004008B500F0EBF903680C2B00D1FEE7FEE780B51148114B0025C0B1A3F1100192C922460439161BB74204D051F8046F42F8046BF7E7114653F8046C8C1A43
:4003C000A64202D041F8045BF9E701381033E5E700F0CCF9FFF76CFEFEE700BF0100000050080000104A114B10B41A60104A114C1368114843F4007313600023032B98BF2D
:4004000054F823204FEA830188BF0C4A0133302B4250F3D10A4B1A780A4B1A700A4B064A10BC1A60FFF7A4BE0004FA050CED00E014ED00E0000000000080FF1F8503000002
:40044000BC760040C080FF1F08ED00E008B500F07FF90A4A137843F02003137012F8013C43F0100302F8013C92F8FF3043F0100382F8FF30BDE8084000F06EB99664004050
:40048000034A13785B07FCD5024B1870704700BF6564004046640040014B1878704700BF56640040034A044913789B0601D50B78FAE77047656500405664004008B500F03F
:4004C00047F9064B1A7842F001021A701A7802F0FE021A70BDE8084000F03EB99664004008B50B4A0B4913789B0601D50B78FAE700F02EF9084B1A7842F001021A701A78E5
:4005000002F0FE021A70BDE8084000F025B900BF65650040566400409664004008B5074B0F221A70FFF7DCFF054B064A1B78064B1B780023137082F8003108BD8664004095
:4005400065640040856400406565004010B5054C23781BB9FFF7E2FF01232370BDE81040FFF774BF5C81FF1F044B1878A3F580731B78184300F0EF00704700BF656500405C
:4005800038B50446084DB4F5004F05D9286800F0D7F8A4F50044F6E7034B58686043BDE8384000F0CDB800BFCC80FF1F144A137803F001031370937803F0FC039370114BA5
:4005C0001A7802F0CF021A701A7842F030021A701A7802F0F0021A701A7842F00F021A70094A137843F00103137042F6DF63A2F80330A2F80530054B00221A70704700BF1D
:400600000C4F0040174F00400D4F00400F4F0040074A137843F002031370137C43F00203137492F8693B43F0010382F8693B7047A343004008B505490B781BB9FFF7B6FFED
:4006400001230B70BDE80840FFF7E2BF5D81FF1F144A137803F001031370937803F0FC039370114B1A7802F0CF021A701A7842F030021A701A7802F0F0021A701A7842F079
:400680000F021A70094A137843F0010313704FF6FF73A2F80330A2F80530054B00221A70704700BF004F00400B4F0040014F0040034F0040074A137843F001031370137CD2
:4006C00043F00103137492F85D3B43F0010382F85D3B7047A343004008B505490B781BB9FFF7B6FF01230B70BDE80840FFF7E2BF5E81FF1F064A0423136002F688321268B1
:40070000A0219064034A1170A2F202321360704780E100E002E400E0024B1878C0F34000704700BF80450040044A4000137800F0020003F0FD0303431370704720510040C3
:400740000230800803D000BF01380046FCD17047EFF3108072B6704780F31088704700BF014B1868704700BF3C81FF1F0E4B70B51E460E4C0025E41AA410A54204D056F81F
:40078000253098470135F8E700F048F8084B094C1E46E41AA4100025A54204D056F8253098470135F8E770BD2808000028080000280800003008000010B5431E0A4491424F
:4007C00004D011F8014B03F8014FF8E710BD03460244934202D003F8011BFAE77047000000000000004F00401800405100403000F0510040100000000140000680060140AD
:40080000800980140140800700400140000A004C014000020050014020004300F8B500BFF8BC08BC9E4670474D000000E5030000F8B500BFF8BC08BC9E4670472900000069
:4008400050080000C880FF1F7800000018010000000000000000E02EC05D00001800000000366E010000000000000000000000000000000000000000000000000000000041
:40088000000000001A080000000000000000000000000000000000000000000000000000000000000000000000000000000000000000000000000000000000000000000016
:4008C00000000000DC80FF1F00000000000000000000000000000000000000000000000000000000000000000000000000000000000000000000000000000000000000007E
:4009000000000000000000000000000000000000000000000000000000000000000000000000000000000000000000000000000000000000000000000000000000000000B7
:400940000000000000000000000000000000000000000000000000000000000000000000000000000000000000000000000000000000000000000000000000000000000077
:400980000000000000000000000000000000000000000000000000000000000000000000000000000000000000000000000000000000000000000000000000000000000037
:4009C00000000000000000000000000000000000000000000000000000000000000000000000000000000000000000000000000000000000000000000000000000000000F7
:020000040003F7
:0200000480007A
:4000000002450040044F0040055200400164004003650040010301405D0401403D0501401306014048070140010B0140010D0140091401404915014044160140431701409F
:40004000021B014004400140084101400B420140094301400244014007450140054601400848014003490140054D0140085001400151014001011B0101100A270D80162751
:4000800000800180111860806440860F8472860F87388A020430060C0C2C0E111010141C162218091A101E03210128402C1431013460361F38203A023F014026410546E00B
:4000C00047BC483849FF4AFF4BFF4EF04F44500C5608580459045A045B045C025D925F0166C06A406B028320847186068715892A8A338B1491039334944C950396139704D1
:4001000099039B1C9E08A071A20EA610A728AA0CB010B20FB30FB460B738B820BA08BB88BE11C002C740C9FFCA07CBFFCC40CD20CEF0CF05D008D409D804D904DA04DB04F6
:40014000DC22DD02DF01E040E1A8E240E32003110604071009010A150E100F021002120414201508160817011A851BA01C401D201E10220227112B802E082F203609371184
:400180003C083E103F024310452048044A01502251045208540455015604570159805C025D045F50628067026A40824085028D208E10A602C065C2AFC473CA41CCE0CEE0F2
:4001C000D024D20CD6F8D8188218846B8614880698159A62A070A209AE20B038B240B407B828B902BF01D804D904DB04DF010004012204050504068009200C010D200E02F2
:400200000F80100211011540171619221A201D641E081F082102240126202D802E012F0832043308340136243C013D413E1444104528468049404B404D044E06548A562004
:4002400057405A4065106D406E176F1475807702810288129040928095049620975298209C029D22A020A280AD80C03EC2D2C4F9CAB0CCE0CEF0D0E0D230D608D820E0506F
:40028000E420850191019501B501D440D904DB04DC20DF010084028209800A940B8010901390180519111A101B04200821A022012704284029442B04311032423304370A35
:4002C000382839813D044005430448044B8052105308590164206620670169046A206B0A7094714072047310800883018421885289018A848D848F849180928894049504BA
:4003000096329A209C029E10A049A5A0A708B102B320C00DC20FC40FCA0FCCCFCE4FD00ED20CD601D8700021021A0423060C08020A1D0D031680170118231A141CD01F02D4
:4003400020D024D0250428D02ED0302032403303341F350436803A203E453F1054015604580459045B045C905D205F018104830A8401853E89288B1490019601993E9A023F
:400380009E01A602A740AB40AD12AF25B002B10EB201B330B540B701B808BE01BF10D418D604D804D904DB04DC22DD20DF0100040514068009A00A900C080E0A12101540CD
:4003C000171619081B011C021D181F01209021412204230426082708280229082B082C202F2032103688381039063D805A025C605D025F086080630667406D80874088806D
:400400009040914092809702982099049AA09B169D10A028A285A508A608AA48AC80AE02AF10C074C2EFC4F4CA4ECC54CE17D6F1D88DE220E220E680301032023640CC7036
:400440002C206708842086029C10A642CA80D88016405B088308870497089C10A640C420D640E220E6106B80770483849C10A640AE40DC60E280E8107D80DE045A806020B1
:400480008940A540D401D802E4048C208E4096809C20E00A8640881096049C10A640AE04E640E8400E049604C28010908890C408E204E601000501010A050B0110051101AF
:4004C0001A051B01003F0000232ED88163D98C0000D1000800D800012208000400240049812074D07200000072D90000500022007211002222D95000000060001FF0800FC1
:40050000200000E00000400024063000050EFCBD3DFFFFFF2200F00C040000000000022404040404000000010000C00040011011C00100114001400100000000000000004C
:4005400000000000000000000241400033180C0000080000030080013FC000001F0020E604E700181CFF230008800000013940C40C1900E20010230010C02C000F38C01F8E
:400580000000288000004100230506000100C00E18FFFFFF62A0F0410C000000000002130404040422220001000000000000400200103010001010120000000000000000D3
:4005C00000000000000000000282800080000000800040808000800000000000000B0B0000000000001A1A001800000088000000000000000000000000000000000000004D
:4006000000000000000000000000000000000000000000000000000000000000000000000000000000000000000000000000000000000000000000000000000000000000BA
:40064000000000000000000000000000000000000000000000000000000000000000000000000000000000000000000000000000000000000000000000000000000000007A
:40068000000000000000000000000000000000000000000000000000000000000000000000000000000000000000000000000000000000000000000000000000000000003A
:4006C00000000000000000000000000000000000000000000000000000000000000000000000000000000000000000000000000000000000000000000000000000000000FA
:0200000490006A
:0400000000004005B7
:0200000490105A
:04000000BC90ACAF55
:0200000490303A
:0200000089A5D0
:0200000490402A
:4000000000000000000000000000000000000000000000000000000000000000000000000000000000000000000000000000000000000000000000000000000000000000C0
:400040000000000000000000000000000000000000000000000000000000000000000000000000000000000000000000000000000000000000000000000000000000000080
:400080000000000000000000000000000000000000000000000000000000000000000000000000000000000000000000000000000000000000000000000000000000000040
:4000C0000000000000000000000000000000000000000000000000000000000000000000000000000000000000000000000000000000000000000000000000000000000000
:0200000490501A
:0C00000000012E16106900012E1A9A0E45
:00000001FF