:400000000080002011000000B1070000B107000008B5044B1A6803F53F5302331A6000F0CFFB00BFFA46004010B5054C237833B9044B13B10448AFF300800123237010BD3D
:400040004881FF1F000000005C0E0000084B10B51BB108490848AFF300800848036803B910BD074B002BFBD0BDE81040184700BF000000004C81FF1F5C0E0000C880FF1F2E
:40008000000000002DE9F74F00F07CFE00F002FD00F06EFC00F054FC00F0EEFB00F014FC00F01EFC00F02EFC0A2000F079FC62B6B94C00F057FD2646002000F0F9FC002370
:4000C00023702578C5BB284600F0F2FCA021102000F07AF94021122000F076F9012000F05FFCA021112000F06FF9642000F058FC4F213C2000F094F92A4660213C2000F0BA
:4001000017FA012000F04CFC2A4660213C2000F00FFA022261213C2000F00AFA102262213C2000F005FA062268213C2000F0CFF9337801333370C4E70020984E984D00F04C
:40014000B7FC984F002333702B703B78DFF854927BB100F02BFE387000F012FD012000F01FFCF2E73370012000F01AFE002000F017FE00F0D3FD8C4B1880002323702078B5
:4001800000287BD100F094FC1E2000F035F9874BC2071870F8D5392000F02EF9844B1870C307F8D54021012000F00EF9642000F00DFC0F2000F020F97E4B4FF000084FF024
:4001C000060A3C2108F10200C0B20191009394F800B0377800F010F90199009B01FB0BFB0AFB07B71F4407F8080008F10108B8F1060FE7D10021012000F0E6F8642000F0BC
:40020000E5FB6D4A00273C2107F12800C0B20191009294F800A096F800B000F0EDF80199009A01FB0AF308FB0B3B93440BF807000137062FE8D1614A4FF00008564B08F1A5
:400240002200C0B20192009394F800A096F800B000F0D2F84FF03C0E0EFB0AF107FB0B1B019A009B93440BF8080008F10108B8F1060FE3D11A7801321A7080E7002000F099
:4002800017FC00F04BFD484A4D4B80B2128818804C4F3378101A27F813000133DBB2092B33707FF660AF00232B702B78092B4FF000033FF657AF237094F80080B8F1000F3E
:4002C00067D1287800F05CFC404600F059FC2B784FF0060A17F813004FF03C0B89F8000000F04EFC2B7837F81300000A89F8000000F046FC217828780BFB01F10AFB0011D5
:400300002D4B194411F8080008F1010800F038FCB8F1060FEED14FF0000B4FF03C0A217828780AFB01F108FB0011244B194411F80B000BF1010B00F023FCBBF1060FEED1AA
:400340001C494FF0000A94F800C03C2000FB0CF095F800E000910BFB0E00084410F80A000AF1010A00F00CFCBAF1060FDFF828800099E8D1632000F003FC692000F000FC4A
:40038000612000F0FDFB98F80030013388F8003092E72B78013387E78881FF1F7181FF1F8482FF1FCC80FF1F8682FF1F7081FF1F9081FF1F0982FF1F9181FF1F9982FF1F37
:4003C0008282FF1F7281FF1F38B505460C4600F07BFA00F085FA00F095FA284600F062FA00F0D4FA8207FBD5204600F05BFA00F0CDFA8307FBD538BD08B540F0800000F00E
:4004000051FA00F0C3FA8207FBD5002000F04AFA00F0BCFAC307FBD5BDE8084000F04EBA38B505460C4601204021FFF7CDFF012000F0B6FA45F001011520FFF7C5FF01201C
:4004400000F0AEFA21461620FFF7BEFF012000F0A7FA01211720FFF7B7FF012000F0A0FA4C211420FFF7B0FF012000F099FA01200021FFF7A9FF2920FFF7BEFF1E20FFF738
:40048000BBFFC207FAD53920FFF7B6FFC307FAD540210120FFF798FF012000F081FA08211420FFF791FF012000F07AFA4FF4967000F08CFA0F20FFF79FFF0220FFF79CFF15
:4004C000044600210120FFF77FFF204638BD70B506460D46144640210120FFF775FF012000F05EFA46F001011520FFF76DFF012000F056FA29461620FFF766FF012000F0ED
:400500004FFA21461720FFF75FFF012000F048FA4C211420FFF758FF012000F041FA01200021FFF751FFBDE87040012000F038BA70B506460D46144640210120FFF744FF3A
:40054000012000F02DFA31461520FFF73DFF012000F026FA29461620FFF736FF012000F01FFA00211720FFF72FFF012000F018FA21462120FFF728FF012000F011FA142086
:400580004C21FFF721FF012000F00AFA2220FFF733FF0306FAD508211420FFF715FF4FF4967000F013FABDE8704000210120FFF70BBF0000F8B572B6654A664D1378002477
:4005C00043F004031370062606FB045300219A881868013400F03AFC082CF5D15E485F4D002450F8041F04F1105303F1420221F0FF064333C9B20B4452005B0002329A421E
:4006000006D012F8027C12F801EC07F806E0F5E7A8420C44E5D1524A524C1378524D43F002031370137C514F43F0020313742378A2F5863243F040032370413A137819266F
:4006400043F0100313704A4B03CBC2F8400DC2F8441D93E8070003C52A80464A0C3303CBA83D1060516093E8070003C52A80424A0C3303CBA2F56162C2F8141EC2F8100EEA
:400680001378172143F0080313703C4B61221A700B22A3F5F0631A80394A18231370518033211371D1801372364B02221A70032108224FF040231A7083F80012324B334981
:4006C0001B780025DBB20B70314B1A8041F2512223F8022C3B784FF4F07003F0010343EA450500F06DFB013E05F003052FD0032DF0D1284B4FF480721A80274907221A7088
:40070000482000220A7088701A70022203F8032C224A234D137843F007031370174B81221A7003F5F723012204331A701D4B1E4A1B78DBB203F007011B09117053701B4B80
:4007400044221A7094E80F0007C52B80F8BDFEE7E8460040600E0000FCFFFF478000004803500140A0430040C0510040254200404C080048125100403251004000480040CF
:40078000824000400043004008010049A1460040224200400440004006400040A2430040B0430040CF0100496E5800407658004008B500F01FFB03680C2B00D1FEE7FEE704
:4007C00080B51148114B0025C0B1A3F1100192C922460439161BB74204D051F8046F42F8046BF7E7114653F8046C8C1AA64202D041F8045BF9E701381033E5E700F000FB76
:40080000FFF740FCFEE700BF01000000C80E0000104A114B10B41A60104A114C1368114843F4007313600023032B98BF54F823204FEA830188BF0C4A0133302B4250F3D1F9
:400840000A4B1A780A4B1A700A4B064A10BC1A60FFF7B0BE0004FA050CED00E014ED00E0000000000080FF1FB1070000BC760040C080FF1F08ED00E008B500F0A9FA084A09
:40088000137843F020031370937843F010039370D37843F01003D370BDE8084000F09CBA9B640040034A13785B07FCD5024B1870704700BF6D6400404E640040014B187805
:4008C000704700BF5E640040034A044913789B0601D50B78FAE770476E6400405E64004008B500F075FA064B1A7842F001021A701A7802F0FE021A70BDE8084000F06CBAE6
:400900009E64004008B50B4A0B4913789B0601D50B78FAE700F05CFA084B1A7842F001021A701A7802F0FE021A70BDE8084000F053BA00BF6E6400405E6400409E640040B2
:4009400008B5074B0F221A70FFF7DCFF054B064A1B78064B1B7800231370537008BD00BF8B6400406D6400408D6400406E64004010B5054C23781BB9FFF7E2FF0123237042
:40098000BDE81040FFF778BF6481FF1F034B1878013B1B78184300F0EF0070476E64004038B50446084DB4F5004F05D9286800F007FAA4F50044F6E7034B58686043BDE86F
:4009C000384000F0FDB900BFD080FF1F024B1B7A584300F0F5B900BFD080FF1F054A00F01F00126800F1100352F8230042F82310704700BF08ED00E000F01F0000F16040C3
:400A0000490100F56440C9B201707047144A137803F001031370937803F0FC039370114B1A7802F0CF021A701A7842F030021A701A7802F0F0021A701A7842F00F021A70B3
:400A4000094A137843F00103137042F6DF63A2F80330A2F80530054B00221A70704700BF004F00400B4F0040014F0040034F0040074A137843F001031370137C43F00103AF
:400A8000137492F85D3B43F0010382F85D3B7047A343004008B505490B781BB9FFF7B6FF01230B70BDE80840FFF7E2BF6581FF1F014B1870704700BF7D64004008B51049B2
:400AC0000020FFF78BFF07210020FFF795FF0D4B00221A700C4B72221A7020225A700B490120FFF77BFF07210120FFF785FF084B06221A7047221A74022203F8A32C08BDA8
:400B0000E50B00006681FF1F896500407D0C00002B65004010B500F05BF904460D4A0E49137843F020031370537843F0100353700A4A012313600B7843F010030B70084980
:400B400002230B60136000F0C1F82046BDE8104000F042B9996500409864004000E100E080E200E010B5054C63781BB9FFF7A6FF01236370BDE81040FFF7CCBF6681FF1F34
:400B800010B5134CE379A279D2B2934202D2511E994201E0991A072914BF002101210029F1D193420B4A05D11178490702D40A4B187010BD082B094928BF0023C854013326
:400BC000E37113789B0742BF054B02221A6010BD6681FF1F68640040486400402A83FF1F00E200E02DE9F0431C491D4C0A4625461C4E1D481D4FDFF87CE0DFF87CC0337830
:400C0000DBB213F01E091EBF90F8008049EA080880F800809B061ED597F800800B785FFA88F8DBB20EF80380237813B101238CF8003013780133DBB213701378072B84BFC2
:400C400000230B700A4B92F800801B789845D6D101232B70D3E7BDE8F08300BF6981FF1F6A81FF1F6A6500406681FF1F496500406881FF1F2283FF1F6B81FF1F0E4AF0B52C
:400C800011460E4C0E480F4D0F4E137827789F4211D0037813F004030DD11778072F88BF13700B78DBB2EB5CDBB233700B780133DBB20B70E9E7F0BD6C81FF1F6D81FF1FBC
:400CC000686400402A83FF1F48640040044A137843F004031370137C43F0040313747047A2430040024A137843F08003137070477C6400400146014800F072B82A64004010
:400D0000024B186820F07F40704700BF4A6400400146014800F064B80A640040034B1B78034B186820F07F40704700BF0A6400404A64004008B5044A13781B0702D5FFF754
:400D4000DFFFF9E708BD00BF6C64004008B56FF07F40FFF7CFFF6FF07F40FFF7D9FF00F037F8064A137843F01003137000F034F8FFF7E0FF024B00221A7008BD9C640040E4
:400D80008C64004010B5054C23781BB9FFF7DEFF01232370BDE81040FFF7A4BF6F81FF1F014B1870704700BF79640040024B1878C0F38000704700BF2151004000000000F9
:400DC0000230800803D000BF01380046FCD17047EFF3108072B6704780F31088704700BFCBB20370C1F30723C1F307414370817070470000014B1868704700BF4081FF1F8C
:400E00000E4B70B51E460E4C0025E41AA410A54204D056F8253098470135F8E700F03AF8084B094C1E46E41AA4100025A54204D056F8253098470135F8E770BDA00E00001B
:400E4000A00E0000A00E0000A80E000003460244934202D003F8011BFAE7704700000000004F00400C00405100403000F05100401000000001400010001401400008004060
:400E80000140000A004C0140000200500140200043000000F8B500BFF8BC08BC9E4670474D00000011080000F8B500BFF8BC08BC9E46704729000000C80E0000C880FF1F9B
:400EC00080000000F001000000000000010000000000E02EC05D00001800000000366E01000000000000000000000000000000000000000000000000000000000000000098
:400F0000900E000000000000000000000000000000000000000000000000000000000000000000000000000000000000000000000000000000000000000000000000000013
:400F4000E080FF1F000000000000000000000000000000000000000000000000000000000000000000000000000000000000000000000000000000000000000000000000F3
:400F80000000000000000000000000000000000000000000000000000000000000000000000000000000000000000000000000000000000000000000000000000000000031
:400FC00000000000000000000000000000000000000000000000000000000000000000000000000000000000000000000000000000000000000000000000000000000000F1
:4010000000000000000000000000000000000000000000000000000000000000000000000000000000000000000000000000000000000000000000000000000000000000B0
:401040000000000000000000000000000000000000000000000000000000000000000000000000000000000000000000000000000000000000000000000000000000000070
:020000040003F7
:0200000480007A
:40000000024F004005520040046400400265004002030140020701404A0801403F090140620A0140420B01404F0C0140420D0140520E0140340F014001150140041601405F
:40004000021701405618014058190140531A0140491B0140034001400841014005420140064301400A450140014601400648014006490140014C0140074D01400750014060
:400080000151014001800A3600801002111A618064407D03880F8B0F8C0D89728A38E602EC20E680EC0803020401110314011A011E011F012601300131033E014023410158
:4000C000450C46EB480D49FF4AFF4BFF4EF04F44500C54015604580459045A045B045C905D225F0166C06A406B028301840E853F8601880E89398A018B048C098E06900266
:4001000093269406951899089D10A004A519A722A80FA901AB40AD27AE01AF18B008B140B31FB407B538BA20BB08BE01D608D804D904DB04DC22DD90DF01001401800610C5
:40014000071008050E220F081080120E1410180419011B101E802010210122202440274029A02B1030A4310432023741381039023A043C103E203F024410460247104F0833
:40018000576058405C205D025E886302678069C06F018A128B4095D896809840A108A204A720AC40C027C2ECC42BCA0ECC9FCE87D070D6F8D888E68002010302050108067A
:4001C000090119021C031D011E04240526022F0231023207330138083F014046410149FF4AFF4BFF4F015018580459045A045C205D015F01604062406440654066806880D4
:400200006A806C806E80800D8101831A840286048C0D8D10900192029310940D9510980299039A0D9B149C0D9D029F1DA002A110A208A40DA520A910AD03AF0CB320B40F3D
:40024000B71FBA20BB80BF04C046C105C9FFCAFFCBFFCD83CE03CF01D018D602D72CD804D904DA04DB04DD01DF01E040E240E440E540E680E880EA80EC80EE8000100240D2
:4002800007610B020C800D010E24122015041640170818101E04210A2540268429402A402B012FA9326036A03729391A3B023C803F02414042804540468148044B104D40CA
:4002C0004F106080610266016D2E6E206FC974C093029410954099409A809C809F01A004A220A480A515AB08B102B204C0BAC2F1C434CAF8CCFCCE97D089D234D880E8048C
:400300000210040406090A100C0E0E01100112021408160418091C0920082201240126082C093010360F3AC03E014042410545EC4702481349FF4AFF4BFF4D834E034F0136
:4003400050185280540158045A045B045D115F056040624064406540668068806A806C806E80800C82028404860889018A068D018E019001941098019C0A9E04A001A4012D
:40038000A810AE08B20EB401B501B610B880B920BE50BF10D409D804D904DB04DF01000202200319054006840710082209110B520C900D0A0E1010D0111812011422170199
:4003C0001A081B481C021D401E40230832043304381039803B1046844D444F0154045604588059065A105D045E405F016280699076807D4087088F509302974099049A01BE
:400400009C709F05A10AA2A0A310A401B204C0FFC2FFC4BFCE0CD0A0D210D6DFD808DE10EC200001010109010D021001130219021D012102250226012F0233023401370194
:4004400038203F444065410442304402450E46FD47BC483D49FF4AFF4BFF4C224EF04F0C50045440580459045A045B045F0162C0644065016610671168C069016B116C406D
:400480006D016E406F018003810383188A038D12900391029310940195019714980399129C03A001A112A202A402A510A601A702A902AC01AD03AE02AF0CB003B51FB920E8
:4004C000D804D904DF01000203400680070809020C500D0A1308142017411B101D021F01201022802620270828602A402B202C402F2530103341341037093A803B623C02E9
:400500003F40410242044304480149044B20510852515304601062507E207F10C058C2F8C4B4CAFBCCEDCE9DD007D20CD80EE602B880BE40D804DF011A0286010110040366
:40054000061C0D14111C1302140316341703180319101A041B0C1C2A1E1422202615290C2B112D092E282F103238340F351F3A28580459045B045C225F018401860A8B04C4
:400580008F019402950496159B019C049E0AA407A704A807A902AD04B101B207B302B418B504B920BE10BF05C043C106C205C402C5E0C60CC806C9FFCAFFCBFFCC62CDA0EA
:4005C000CEF0CF41D00CD602D713D804D904DA04DB04DC22DD22DF01E640E702E910EA30EB10ED10EE10EF1200080610080209020A200B010E220F081114141015411A209A
:400600001B201D101E201F042020210223042704280829802B102D402F053228340835103601370438803A203D013F8040804108432849024A084B405040588059815C40B1
:4006400065106610691C6A806B1070A0710484108A208B408D0C8E028F40904092409518968099019A209C109DA49E10A108A220A354A4A0A61BA820AB04B021B102B32096
:40068000B404B640C024C2E5C4B6CA3ECCE6CE9CD007D20CD611E008000C0109031004010704080F09180C030D120E0C0F08100F11031403170319181C021D0320082304ED
:4006C00024042703280C2A032B032D032E0331033504360F37183A803B083F1054185604580459045B045C225D205F018308870388079407980899019A019B069D0C9F0332
:40070000A901AB0EAC02AE04AF0CB00CB10FB203B80ABB02BE04C003C540C9FFCA07CBFFCC40CD20CEF0CF05D008D804D904DA04DC22DD02DF01E040E1A8E240E320000811
:4007400001800208034005100A600B010C100E200F0810A41202178019801D081F01200421402209230126012780280429822A202B102F05310133983510378039923B044D
:400780003D013F0845084D014F085A0260066340810182088740880489218E108F8091109260930C95019703980299129A209B509C109DA0A0A0A212A318A404A609C04F5D
:4007C000C26DC48FCA3FCC3FCECFD040D601D80D30103580CC305C02840296049C109D80B204D680E640104096049C109D80C410898096049C109D80AC40EC1057025B10F1
:4008000060108C108F02D401D604D802E008E402AB106720871096049C10D880E6400E04841096049C10C280E64087101010731088109310C408DC01E204000701010C07B3
:400840000D010E0310041C04000F00000080800080000000800040808000800000000000000B0B00000000000400001E1A001A00000000008000000000000000000000006A
:400880000000000000000000000000000000000000000000000000000000000000000000000000000000000000000000000000000000000000000000000000000000000038
:4008C00000000000000000000000000000000000000000000000000000000000000000000000000000000000000000000000000000000000000000000000000000000000F8
:4009000000000000000000000000000000000000000000000000000000000000000000000000000000000000000000000000000000000000000000000000000000000000B7
:400940000000000000000000000000000000000000000000000000000000000000000000000000000000000000000000000000000000000000000000000000000000000077
:0200000490006A
:0400000000004005B7
:0200000490105A
:04000000BC90ACAF55
:0200000490303A
:02000000155396
:0200000490402A
:4000000000000000000000000000000000000000000000000000000000000000000000000000000000000000000000000000000000000000000000000000000000000000C0
:400040000000000000000000000000000000000000000000000000000000000000000000000000000000000000000000000000000000000000000000000000000000000080
:400080000000000000000000000000000000000000000000000000000000000000000000000000000000000000000000000000000000000000000000000000000000000040
:4000C0000000000000000000000000000000000000000000000000000000000000000000000000000000000000000000000000000000000000000000000000000000000000
:0200000490501A
:0C00000000012E16106900012E1E25BC08
:00000001FF